{
  "_format": "hh3-artifact-1",
  "contractName": "ToeflRecord",
  "sourceName": "contracts/ToeflRecord.sol",
  "abi": [
    {
      "anonymous": false,
      "inputs": [
        {
          "indexed": true,
          "internalType": "bytes32",
          "name": "toefl_hash",
          "type": "bytes32"
        },
        {
          "indexed": true,
          "internalType": "address",
          "name": "address_peserta",
          "type": "address"
        }
      ],
      "name": "RecordStored",
      "type": "event"
    },
    {
      "inputs": [
        {
          "internalType": "bytes32",
          "name": "toefl_hash",
          "type": "bytes32"
        }
      ],
      "name": "getRecord",
      "outputs": [
        {
          "components": [
            {
              "internalType": "address",
              "name": "address_peserta",
              "type": "address"
            },
            {
              "internalType": "string",
              "name": "nama_lengkap",
              "type": "string"
            },
            {
              "internalType": "string",
              "name": "email",
              "type": "string"
            },
            {
              "internalType": "string",
              "name": "nomor_induk_mahasiswa",
              "type": "string"
            },
            {
              "internalType": "string",
              "name": "jurusan",
              "type": "string"
            },
            {
              "internalType": "string",
              "name": "sesi_tes",
              "type": "string"
            },
            {
              "internalType": "uint32",
              "name": "tanggal_tes",
              "type": "uint32"
            },
            {
              "internalType": "uint8",
              "name": "nilai_listening",
              "type": "uint8"
            },
            {
              "internalType": "uint8",
              "name": "nilai_structure",
              "type": "uint8"
            },
            {
              "internalType": "uint8",
              "name": "nilai_reading",
              "type": "uint8"
            },
            {
              "internalType": "uint32",
              "name": "tanggal_terbit",
              "type": "uint32"
            },
            {
              "internalType": "address",
              "name": "address_admin",
              "type": "address"
            }
          ],
          "internalType": "struct ToeflRecord.Record",
          "name": "",
          "type": "tuple"
        }
      ],
      "stateMutability": "view",
      "type": "function"
    },
    {
      "inputs": [
        {
          "internalType": "bytes32",
          "name": "toefl_hash",
          "type": "bytes32"
        },
        {
          "components": [
            {
              "internalType": "address",
              "name": "address_peserta",
              "type": "address"
            },
            {
              "internalType": "string",
              "name": "nama_lengkap",
              "type": "string"
            },
            {
              "internalType": "string",
              "name": "email",
              "type": "string"
            },
            {
              "internalType": "string",
              "name": "nomor_induk_mahasiswa",
              "type": "string"
            },
            {
              "internalType": "string",
              "name": "jurusan",
              "type": "string"
            },
            {
              "internalType": "string",
              "name": "sesi_tes",
              "type": "string"
            },
            {
              "internalType": "uint32",
              "name": "tanggal_tes",
              "type": "uint32"
            },
            {
              "internalType": "uint8",
              "name": "nilai_listening",
              "type": "uint8"
            },
            {
              "internalType": "uint8",
              "name": "nilai_structure",
              "type": "uint8"
            },
            {
              "internalType": "uint8",
              "name": "nilai_reading",
              "type": "uint8"
            },
            {
              "internalType": "uint32",
              "name": "tanggal_terbit",
              "type": "uint32"
            },
            {
              "internalType": "address",
              "name": "address_admin",
              "type": "address"
            }
          ],
          "internalType": "struct ToeflRecord.Record",
          "name": "_record",
          "type": "tuple"
        }
      ],
      "name": "storedRecord",
      "outputs": [],
      "stateMutability": "nonpayable",
      "type": "function"
    }
  ],
  "bytecode": "0x6080604052348015600e575f5ffd5b50610b398061001c5f395ff3fe608060405234801561000f575f5ffd5b5060043610610034575f3560e01c8063213681cd14610038578063eded8e3a14610061575b5f5ffd5b61004b61004636600461054d565b610076565b6040516100589190610592565b60405180910390f35b61007461006f3660046106be565b61048e565b005b6040805161018080820183525f808352606060208085018290528486018290528185018290526080850182905260a085019190915260c0840182905260e084018290526101008401829052610120840182905261014084018290526101608401829052858252818152848220855193840190955284546001600160a01b03168352600185018054949592949184019161010e90610709565b80601f016020809104026020016040519081016040528092919081815260200182805461013a90610709565b80156101855780601f1061015c57610100808354040283529160200191610185565b820191905f5260205f20905b81548152906001019060200180831161016857829003601f168201915b5050505050815260200160028201805461019e90610709565b80601f01602080910402602001604051908101604052809291908181526020018280546101ca90610709565b80156102155780601f106101ec57610100808354040283529160200191610215565b820191905f5260205f20905b8154815290600101906020018083116101f857829003601f168201915b5050505050815260200160038201805461022e90610709565b80601f016020809104026020016040519081016040528092919081815260200182805461025a90610709565b80156102a55780601f1061027c576101008083540402835291602001916102a5565b820191905f5260205f20905b81548152906001019060200180831161028857829003601f168201915b505050505081526020016004820180546102be90610709565b80601f01602080910402602001604051908101604052809291908181526020018280546102ea90610709565b80156103355780601f1061030c57610100808354040283529160200191610335565b820191905f5260205f20905b81548152906001019060200180831161031857829003601f168201915b5050505050815260200160058201805461034e90610709565b80601f016020809104026020016040519081016040528092919081815260200182805461037a90610709565b80156103c55780601f1061039c576101008083540402835291602001916103c5565b820191905f5260205f20905b8154815290600101906020018083116103a857829003601f168201915b50505091835250506006919091015463ffffffff808216602084015260ff640100000000830481166040850152650100000000008304811660608501526601000000000000830416608084015267010000000000000082041660a08301526001600160a01b03600160581b909104811660c0909201919091528151919250166104885760405162461bcd60e51b815260206004820152601060248201526f149958dbdc99081b9bdd08199bdd5b9960821b60448201526064015b60405180910390fd5b92915050565b5f828152602081905260409020546001600160a01b0316156104ea5760405162461bcd60e51b81526020600482015260156024820152745265636f726420616c72656164792065786973747360581b604482015260640161047f565b5f828152602081905260409020819061050382826108ed565b5061051390506020820182610ae1565b6001600160a01b0316827f9ab34480d94fab9083fb6dc4436216baa0bd47784e8c6f8813840893e97b2ac260405160405180910390a35050565b5f6020828403121561055d575f5ffd5b5035919050565b5f81518084528060208401602086015e5f602082860101526020601f19601f83011685010191505092915050565b602081526105ac6020820183516001600160a01b03169052565b5f602083015161018060408401526105c86101a0840182610564565b90506040840151601f198483030160608501526105e58282610564565b9150506060840151601f198483030160808501526106038282610564565b9150506080840151601f198483030160a08501526106218282610564565b91505060a0840151601f198483030160c085015261063f8282610564565b91505060c084015161065960e085018263ffffffff169052565b5060e084015160ff81166101008501525061010084015160ff81166101208501525061012084015160ff81166101408501525061014084015163ffffffff8116610160850152506101608401516001600160a01b038116610180850152509392505050565b5f5f604083850312156106cf575f5ffd5b82359150602083013567ffffffffffffffff8111156106ec575f5ffd5b830161018081860312156106fe575f5ffd5b809150509250929050565b600181811c9082168061071d57607f821691505b60208210810361073b57634e487b7160e01b5f52602260045260245ffd5b50919050565b6001600160a01b0381168114610755575f5ffd5b50565b5f813561048881610741565b5f5f8335601e19843603018112610779575f5ffd5b83018035915067ffffffffffffffff821115610793575f5ffd5b6020019150368190038213156107a7575f5ffd5b9250929050565b634e487b7160e01b5f52604160045260245ffd5b601f82111561080957805f5260205f20601f840160051c810160208510156107e75750805b601f840160051c820191505b81811015610806575f81556001016107f3565b50505b505050565b67ffffffffffffffff831115610826576108266107ae565b61083a836108348354610709565b836107c2565b5f601f84116001811461086b575f85156108545750838201355b5f19600387901b1c1916600186901b178355610806565b5f83815260208120601f198716915b8281101561089a578685013582556020948501946001909201910161087a565b50868210156108b6575f1960f88860031b161c19848701351681555b505060018560011b0183555050505050565b5f813563ffffffff81168114610488575f5ffd5b5f813560ff81168114610488575f5ffd5b6109166108f983610758565b82546001600160a01b0319166001600160a01b0391909116178255565b6109236020830183610764565b61093181836001860161080e565b50506109406040830183610764565b61094e81836002860161080e565b505061095d6060830183610764565b61096b81836003860161080e565b505061097a6080830183610764565b61098881836004860161080e565b505061099760a0830183610764565b6109a581836005860161080e565b5050600681016109d16109ba60c085016108c8565b825463ffffffff191663ffffffff91909116178255565b6109fc6109e060e085016108dc565b825464ff00000000191660209190911b64ff0000000016178255565b610a2a610a0c61010085016108dc565b825465ff0000000000191660289190911b65ff000000000016178255565b610a5a610a3a61012085016108dc565b825466ff000000000000191660309190911b66ff00000000000016178255565b610a92610a6a61014085016108c8565b82546affffffff00000000000000191660389190911b6affffffff0000000000000016178255565b610809610aa26101608501610758565b8280547fff0000000000000000000000000000000000000000ffffffffffffffffffffff1660589290921b600160581b600160f81b0316919091179055565b5f60208284031215610af1575f5ffd5b8135610afc81610741565b939250505056fea2646970667358221220c7717284810a1ef3d184d123b1f6dad8e241334380f59f2363cf88ff7c31f1af64736f6c634300081c0033",
  "linkReferences": {},
  "deployedLinkReferences": {},
  "immutableReferences": {},
  "inputSourceName": "project/contracts/ToeflRecord.sol",
  "buildInfoId": "solc-0_8_28-61c04f796e04538d9925d3b5bdb7fc2d013f8169"
}