{
  "_format": "hh3-artifact-1",
  "contractName": "ToeflRecord",
  "sourceName": "contracts/ToeflRecord.sol",
  "abi": [
    {
      "anonymous": false,
      "inputs": [
        {
          "indexed": true,
          "internalType": "bytes32",
          "name": "toefl_hash",
          "type": "bytes32"
        },
        {
          "indexed": true,
          "internalType": "address",
          "name": "address_peserta",
          "type": "address"
        }
      ],
      "name": "RecordStored",
      "type": "event"
    },
    {
      "inputs": [
        {
          "internalType": "bytes32",
          "name": "toefl_hash",
          "type": "bytes32"
        }
      ],
      "name": "getRecord",
      "outputs": [
        {
          "components": [
            {
              "internalType": "address",
              "name": "address_peserta",
              "type": "address"
            },
            {
              "internalType": "string",
              "name": "nama_lengkap",
              "type": "string"
            },
            {
              "internalType": "string",
              "name": "jenis_kelamin",
              "type": "string"
            },
            {
              "internalType": "string",
              "name": "nomor_induk_mahasiswa",
              "type": "string"
            },
            {
              "internalType": "string",
              "name": "fakultas",
              "type": "string"
            },
            {
              "internalType": "string",
              "name": "program_studi",
              "type": "string"
            },
            {
              "internalType": "string",
              "name": "sesi_tes",
              "type": "string"
            },
            {
              "internalType": "uint32",
              "name": "tanggal_tes",
              "type": "uint32"
            },
            {
              "internalType": "uint32",
              "name": "tanggal_lahir",
              "type": "uint32"
            },
            {
              "internalType": "uint8",
              "name": "nilai_listening",
              "type": "uint8"
            },
            {
              "internalType": "uint8",
              "name": "nilai_structure",
              "type": "uint8"
            },
            {
              "internalType": "uint8",
              "name": "nilai_reading",
              "type": "uint8"
            },
            {
              "internalType": "uint32",
              "name": "tanggal_terbit",
              "type": "uint32"
            },
            {
              "internalType": "address",
              "name": "address_admin",
              "type": "address"
            }
          ],
          "internalType": "struct ToeflRecord.Record",
          "name": "",
          "type": "tuple"
        }
      ],
      "stateMutability": "view",
      "type": "function"
    },
    {
      "inputs": [
        {
          "internalType": "bytes32",
          "name": "toefl_hash",
          "type": "bytes32"
        },
        {
          "components": [
            {
              "internalType": "address",
              "name": "address_peserta",
              "type": "address"
            },
            {
              "internalType": "string",
              "name": "nama_lengkap",
              "type": "string"
            },
            {
              "internalType": "string",
              "name": "jenis_kelamin",
              "type": "string"
            },
            {
              "internalType": "string",
              "name": "nomor_induk_mahasiswa",
              "type": "string"
            },
            {
              "internalType": "string",
              "name": "fakultas",
              "type": "string"
            },
            {
              "internalType": "string",
              "name": "program_studi",
              "type": "string"
            },
            {
              "internalType": "string",
              "name": "sesi_tes",
              "type": "string"
            },
            {
              "internalType": "uint32",
              "name": "tanggal_tes",
              "type": "uint32"
            },
            {
              "internalType": "uint32",
              "name": "tanggal_lahir",
              "type": "uint32"
            },
            {
              "internalType": "uint8",
              "name": "nilai_listening",
              "type": "uint8"
            },
            {
              "internalType": "uint8",
              "name": "nilai_structure",
              "type": "uint8"
            },
            {
              "internalType": "uint8",
              "name": "nilai_reading",
              "type": "uint8"
            },
            {
              "internalType": "uint32",
              "name": "tanggal_terbit",
              "type": "uint32"
            },
            {
              "internalType": "address",
              "name": "address_admin",
              "type": "address"
            }
          ],
          "internalType": "struct ToeflRecord.Record",
          "name": "_record",
          "type": "tuple"
        }
      ],
      "name": "storedRecord",
      "outputs": [],
      "stateMutability": "nonpayable",
      "type": "function"
    }
  ],
  "bytecode": "0x6080604052348015600e575f5ffd5b50610c4d8061001c5f395ff3fe608060405234801561000f575f5ffd5b5060043610610034575f3560e01c8063213681cd14610038578063c81d9fec14610061575b5f5ffd5b61004b6100463660046105fb565b610076565b6040516100589190610640565b60405180910390f35b61007461006f3660046107a0565b61053c565b005b604080516101c080820183525f808352606060208085018290528486018290528185018290526080850182905260a0850182905260c085019190915260e08401829052610100840182905261012084018290526101408401829052610160840182905261018084018290526101a08401829052858252818152848220855193840190955284546001600160a01b03168352600185018054949592949184019161011e906107eb565b80601f016020809104026020016040519081016040528092919081815260200182805461014a906107eb565b80156101955780601f1061016c57610100808354040283529160200191610195565b820191905f5260205f20905b81548152906001019060200180831161017857829003601f168201915b505050505081526020016002820180546101ae906107eb565b80601f01602080910402602001604051908101604052809291908181526020018280546101da906107eb565b80156102255780601f106101fc57610100808354040283529160200191610225565b820191905f5260205f20905b81548152906001019060200180831161020857829003601f168201915b5050505050815260200160038201805461023e906107eb565b80601f016020809104026020016040519081016040528092919081815260200182805461026a906107eb565b80156102b55780601f1061028c576101008083540402835291602001916102b5565b820191905f5260205f20905b81548152906001019060200180831161029857829003601f168201915b505050505081526020016004820180546102ce906107eb565b80601f01602080910402602001604051908101604052809291908181526020018280546102fa906107eb565b80156103455780601f1061031c57610100808354040283529160200191610345565b820191905f5260205f20905b81548152906001019060200180831161032857829003601f168201915b5050505050815260200160058201805461035e906107eb565b80601f016020809104026020016040519081016040528092919081815260200182805461038a906107eb565b80156103d55780601f106103ac576101008083540402835291602001916103d5565b820191905f5260205f20905b8154815290600101906020018083116103b857829003601f168201915b505050505081526020016006820180546103ee906107eb565b80601f016020809104026020016040519081016040528092919081815260200182805461041a906107eb565b80156104655780601f1061043c57610100808354040283529160200191610465565b820191905f5260205f20905b81548152906001019060200180831161044857829003601f168201915b5050509183525050600782015463ffffffff808216602084015264010000000082048116604084015260ff680100000000000000008304811660608501526901000000000000000000830481166080850152600160501b83041660a0840152600160581b9091041660c08201526008909101546001600160a01b0390811660e0909201919091528151919250166105365760405162461bcd60e51b815260206004820152601060248201526f149958dbdc99081b9bdd08199bdd5b9960821b60448201526064015b60405180910390fd5b92915050565b5f828152602081905260409020546001600160a01b0316156105985760405162461bcd60e51b81526020600482015260156024820152745265636f726420616c72656164792065786973747360581b604482015260640161052d565b5f82815260208190526040902081906105b182826109ef565b506105c190506020820182610bf5565b6001600160a01b0316827f9ab34480d94fab9083fb6dc4436216baa0bd47784e8c6f8813840893e97b2ac260405160405180910390a35050565b5f6020828403121561060b575f5ffd5b5035919050565b5f81518084528060208401602086015e5f602082860101526020601f19601f83011685010191505092915050565b6020815261065a6020820183516001600160a01b03169052565b5f60208301516101c060408401526106766101e0840182610612565b90506040840151601f198483030160608501526106938282610612565b9150506060840151601f198483030160808501526106b18282610612565b9150506080840151601f198483030160a08501526106cf8282610612565b91505060a0840151601f198483030160c08501526106ed8282610612565b91505060c0840151601f198483030160e085015261070b8282610612565b91505060e084015161072661010085018263ffffffff169052565b5061010084015163ffffffff81166101208501525061012084015160ff81166101408501525061014084015160ff81166101608501525061016084015160ff81166101808501525061018084015163ffffffff81166101a0850152506101a08401516001600160a01b0381166101c0850152509392505050565b5f5f604083850312156107b1575f5ffd5b82359150602083013567ffffffffffffffff8111156107ce575f5ffd5b83016101c081860312156107e0575f5ffd5b809150509250929050565b600181811c908216806107ff57607f821691505b60208210810361081d57634e487b7160e01b5f52602260045260245ffd5b50919050565b6001600160a01b0381168114610837575f5ffd5b50565b5f813561053681610823565b80546001600160a01b0319166001600160a01b0392909216919091179055565b5f5f8335601e1984360301811261087b575f5ffd5b83018035915067ffffffffffffffff821115610895575f5ffd5b6020019150368190038213156108a9575f5ffd5b9250929050565b634e487b7160e01b5f52604160045260245ffd5b601f82111561090b57805f5260205f20601f840160051c810160208510156108e95750805b601f840160051c820191505b81811015610908575f81556001016108f5565b50505b505050565b67ffffffffffffffff831115610928576109286108b0565b61093c8361093683546107eb565b836108c4565b5f601f84116001811461096d575f85156109565750838201355b5f19600387901b1c1916600186901b178355610908565b5f83815260208120601f198716915b8281101561099c578685013582556020948501946001909201910161097c565b50868210156109b8575f1960f88860031b161c19848701351681555b505060018560011b0183555050505050565b5f813563ffffffff81168114610536575f5ffd5b5f813560ff81168114610536575f5ffd5b610a016109fb8361083a565b82610846565b610a0e6020830183610866565b610a1c818360018601610910565b5050610a2b6040830183610866565b610a39818360028601610910565b5050610a486060830183610866565b610a56818360038601610910565b5050610a656080830183610866565b610a73818360048601610910565b5050610a8260a0830183610866565b610a90818360058601610910565b5050610a9f60c0830183610866565b610aad818360068601610910565b505060078101610ad9610ac260e085016109ca565b825463ffffffff191663ffffffff91909116178255565b610b0b610ae961010085016109ca565b825467ffffffff00000000191660209190911b67ffffffff0000000016178255565b610b3f610b1b61012085016109de565b825468ff0000000000000000191660409190911b68ff000000000000000016178255565b610b75610b4f61014085016109de565b825469ff000000000000000000191660489190911b69ff00000000000000000016178255565b610ba3610b8561016085016109de565b82805460ff60501b191660509290921b60ff60501b16919091179055565b610bd7610bb361018085016109ca565b82805463ffffffff60581b191660589290921b63ffffffff60581b16919091179055565b50610bf1610be86101a0840161083a565b60088301610846565b5050565b5f60208284031215610c05575f5ffd5b8135610c1081610823565b939250505056fea2646970667358221220b7abc2e5639e21ab9a4bfa0f6fe04df65120f35b4930cbeda68e15ad308857e764736f6c634300081c0033",
  "linkReferences": {},
  "deployedLinkReferences": {},
  "immutableReferences": {},
  "inputSourceName": "project/contracts/ToeflRecord.sol",
  "buildInfoId": "solc-0_8_28-18e420c183f8e410a9777e7b8d503e1b09b532f0"
}