{
  "_format": "hh3-artifact-1",
  "contractName": "TOEFLRecord",
  "sourceName": "contracts/TOEFLRecord.sol",
  "abi": [
    {
      "anonymous": false,
      "inputs": [
        {
          "indexed": true,
          "internalType": "address",
          "name": "sender",
          "type": "address"
        },
        {
          "indexed": true,
          "internalType": "bytes32",
          "name": "hash",
          "type": "bytes32"
        },
        {
          "indexed": false,
          "internalType": "string",
          "name": "cid",
          "type": "string"
        }
      ],
      "name": "RecordStored",
      "type": "event"
    },
    {
      "inputs": [
        {
          "internalType": "bytes32",
          "name": "hash",
          "type": "bytes32"
        }
      ],
      "name": "getRecord",
      "outputs": [
        {
          "internalType": "string",
          "name": "",
          "type": "string"
        }
      ],
      "stateMutability": "view",
      "type": "function"
    },
    {
      "inputs": [
        {
          "internalType": "bytes32",
          "name": "hash",
          "type": "bytes32"
        },
        {
          "internalType": "string",
          "name": "cid",
          "type": "string"
        }
      ],
      "name": "store",
      "outputs": [],
      "stateMutability": "nonpayable",
      "type": "function"
    }
  ],
  "bytecode": "0x6080604052348015600e575f5ffd5b506107eb8061001c5f395ff3fe608060405234801561000f575f5ffd5b5060043610610034575f3560e01c8063213681cd146100385780639d105a2514610068575b5f5ffd5b610052600480360381019061004d9190610237565b610084565b60405161005f91906102d2565b60405180910390f35b610082600480360381019061007d919061041e565b610124565b005b60605f5f8381526020019081526020015f2080546100a1906104a5565b80601f01602080910402602001604051908101604052809291908181526020018280546100cd906104a5565b80156101185780601f106100ef57610100808354040283529160200191610118565b820191905f5260205f20905b8154815290600101906020018083116100fb57829003601f168201915b50505050509050919050565b5f5f5f8481526020019081526020015f208054610140906104a5565b905014610182576040517f08c379a00000000000000000000000000000000000000000000000000000000081526004016101799061051f565b60405180910390fd5b805f5f8481526020019081526020015f20908161019f91906106e6565b50813373ffffffffffffffffffffffffffffffffffffffff167fef25f6b8642c9464ee482dcafb16200c1503926bb7a8a87271a9f483e6732c5f836040516101e791906102d2565b60405180910390a35050565b5f604051905090565b5f5ffd5b5f5ffd5b5f819050919050565b61021681610204565b8114610220575f5ffd5b50565b5f813590506102318161020d565b92915050565b5f6020828403121561024c5761024b6101fc565b5b5f61025984828501610223565b91505092915050565b5f81519050919050565b5f82825260208201905092915050565b8281835e5f83830152505050565b5f601f19601f8301169050919050565b5f6102a482610262565b6102ae818561026c565b93506102be81856020860161027c565b6102c78161028a565b840191505092915050565b5f6020820190508181035f8301526102ea818461029a565b905092915050565b5f5ffd5b5f5ffd5b7f4e487b71000000000000000000000000000000000000000000000000000000005f52604160045260245ffd5b6103308261028a565b810181811067ffffffffffffffff8211171561034f5761034e6102fa565b5b80604052505050565b5f6103616101f3565b905061036d8282610327565b919050565b5f67ffffffffffffffff82111561038c5761038b6102fa565b5b6103958261028a565b9050602081019050919050565b828183375f83830152505050565b5f6103c26103bd84610372565b610358565b9050828152602081018484840111156103de576103dd6102f6565b5b6103e98482856103a2565b509392505050565b5f82601f830112610405576104046102f2565b5b81356104158482602086016103b0565b91505092915050565b5f5f60408385031215610434576104336101fc565b5b5f61044185828601610223565b925050602083013567ffffffffffffffff81111561046257610461610200565b5b61046e858286016103f1565b9150509250929050565b7f4e487b71000000000000000000000000000000000000000000000000000000005f52602260045260245ffd5b5f60028204905060018216806104bc57607f821691505b6020821081036104cf576104ce610478565b5b50919050565b7f5265636f726420616c72656164792065786973747300000000000000000000005f82015250565b5f61050960158361026c565b9150610514826104d5565b602082019050919050565b5f6020820190508181035f830152610536816104fd565b9050919050565b5f819050815f5260205f209050919050565b5f6020601f8301049050919050565b5f82821b905092915050565b5f600883026105997fffffffffffffffffffffffffffffffffffffffffffffffffffffffffffffffff8261055e565b6105a3868361055e565b95508019841693508086168417925050509392505050565b5f819050919050565b5f819050919050565b5f6105e76105e26105dd846105bb565b6105c4565b6105bb565b9050919050565b5f819050919050565b610600836105cd565b61061461060c826105ee565b84845461056a565b825550505050565b5f5f905090565b61062b61061c565b6106368184846105f7565b505050565b5b818110156106595761064e5f82610623565b60018101905061063c565b5050565b601f82111561069e5761066f8161053d565b6106788461054f565b81016020851015610687578190505b61069b6106938561054f565b83018261063b565b50505b505050565b5f82821c905092915050565b5f6106be5f19846008026106a3565b1980831691505092915050565b5f6106d683836106af565b9150826002028217905092915050565b6106ef82610262565b67ffffffffffffffff811115610708576107076102fa565b5b61071282546104a5565b61071d82828561065d565b5f60209050601f83116001811461074e575f841561073c578287015190505b61074685826106cb565b8655506107ad565b601f19841661075c8661053d565b5f5b828110156107835784890151825560018201915060208501945060208101905061075e565b868310156107a0578489015161079c601f8916826106af565b8355505b6001600288020188555050505b50505050505056fea2646970667358221220208afa4417dd10ba5c47f249ce016465f259ab7d7beb6bc09bf73dd5334c9e7964736f6c634300081c0033",
  "linkReferences": {},
  "deployedLinkReferences": {},
  "immutableReferences": {},
  "inputSourceName": "project/contracts/TOEFLRecord.sol",
  "buildInfoId": "solc-0_8_28-f81be5f991e8d3afe9f7baa319204a8a22f2f19e"
}